:1009F7007580FFC2A0D2A1C2A200D2A2E580332295
:1009B3001209F740FBC2A0C2A1D2A28F8000C2A23B
:0109C3002211
:1009C4001209F740FBD2A0C2A1D2A28F8000C2A21A
:0109D4002200
:0C001E007F011209B37F057E0002099FDC
:10085100AE07ED7005EE24808003EE24C0FF12097F
:10086100B3120404FF600C1209C4740129F9E43ABB
:04087100FA80EE22F9
:10000300AE07AC03ED7005EE24808003EE24C0FF41
:080013001209B3AF040209C495
:10073C007F381209B37F057E0012099F7F3812099A
:10074C00B37F057E0012099F7F381209B37F057EA7
:10075C000012099F7F381209B37F081209B37F0179
:10076C001209B37F061209B31F7E0012099F7F0C7A
:03077C000209B3BC
:1006F0002020203E20202020203C202020002020E0
:10070000202020205F202020202020002020205E8C
:1007100020202020205E202020002020202057653F
:100720006C636F6D652120202020004C6F6E672068
:0C07300074696D65206E6F2073656500B4
:090A4500011500010A00010B007B
:10091E0075942075932075923C75913CE4F596F58F
:0E092E0095F5B2F5B1F5B4F5B3F5CAF5C922E9
:100645008F178D18C3E5186480941C4050D3E518A6
:10065500648094E45047E517B4011FAF18EF339554
:10066500E0FE120A238F0AC3E518648094805006C1
:10067500C2A3D2A48004D2A3C2A4E517B4021EAFBC
:1006850018EF3395E0FE120A238F0BC3E51864803B
:0E06950094805005C2A5D2A622D2A5C2A622EC
:1009D500D3EF9400EE94004007EF1F70F31E80F0F4
:0109E50022EF
:10097300538EBF53890F438920758BA4758DA4C2F1
:080983008FD28ED2AFD2AB225D
:1009E600751632AD167F01120645AD167F02020658
:0109F60045BB
:090A4F00C2A3C2A4C2A5C2A622E2
:0B0A17007D327F01120645C2A5C2A679
:010A220022B1
:0B0A2F007D32C2A3C2A47F0202064574
:1008750012001E7F057E0012099F7BFF7A0679F024
:10088500E4FDFF1208517BFF7A0679FE7D01E4FF46
:0308950002085105
:1008980012001E7F057E0012099F7BFF7A07790CE4
:1008A800E4FDFF1208517BFF7A0679FE7D01E4FF23
:0308B800020851E2
:1008BB0012001E7F057E0012099F7BFF7A07791AB3
:1008CB00E4FDFF1208517BFF7A07792B7D01E4FFD2
:0308DB00020851BF
:1008DE00759D2075BC847FE87E03EF1F70011EEFAF
:0F08EE004E70F743972075BC8CD2BDD2AFD2AD00
:0108FD0022D8
:03002B00020A7254
:070A720075BC8475BC8C32D9
:10098B0075985A75D7E075D6FE758E14438E01D2C5
:04099B00AFD2AC2209
:080A6A003099FDC2998F992219
:090A5800309805C29885990C2222
:0B0A3A00758901E4F58CF58AC28C225E
:070A7900C297C296020A4F6A
:1008FE00751101D2971209E61208757F0A7E001251
:10090E00099F0511C3E511648094B240E6020A798D
:1004B600D292120A6100C2923093FDD28C2093FD33
:1004C600C28C1208DEAF8C750F008F10AF8CEFFE5A
:1004D600AD8A7C00E42DFDEC3EFCE412034A8F1944
:1004E6008E188D178C16E4FBFA797A784412022F4F
:1004F6008F198E188D178C16E4FBFA7988784112BD
:1005060001268F198E188D178C161203838E1A8F5B
:100516001BAC1AAD1BE412034AA804A905AA06AB34
:1005260007AF19AE18AD17AC16120031E4FBFAF995
:10053600783F1202CC60025008051BE51B700205CD
:050546001AAE1AAF1B04
:01054B00228D
:1007F8001206A37C007D0A12041D8C138D14E514C7
:1008080045137018751201D2977F327E0012099F26
:0F0818000512C3E5126480949440EC22C297222B
:10077F00C3E5109414E50F94005031751201120A5D
:10078F00177F0A7E0012099F0512C3E51264809439
:10079F00B240EB7511011209E67F0A7E0012099F24
:1007AF000511C3E511648094B240EB22120A4F2267
:100827001206A37C007D0A12041DED4C7018751288
:1008370001D2967F017E0012099F0512C3E512645B
:090847008094B240EC22120A79FF
:010850002285
:10095900751201D2967F057E0012099F0512C3E523
:0A09690012648094B240ECC29622A2
:10093C0012091E7F057E0012099F12073C7F057E5F
:0D094C000012099F12098B1208DE020973C8
:1005D80012093C120A58C292120A3A1204B68E0F35
:1005E8008F10AFBDEF24FE601D04704C7F01120A0E
:1005F8006AE50CB402031208FEE50CB403D5120830
:100608007512095980CDE50CB4010912077F12074C
:10061800F8120875E50CB40206120827120898E5C6
:100628000CB40303120898E50CB404A712001E7F4B
:0D063800057E0012099F809B120A798096B2
:03001B000207BF1A
:1007BF00C0E0C0D0E5157006850A08850B09E51560
:1007CF00C395085004D2908002C290E515C39509D5
:1007DF005004D2918002C2910515E515C39464406F
:0907EF0003751500D0D0D0E032F2
:050A800000000000224F
:080A61007F0C7EA9DEFEDFFC24
:010A6900226A
:10099F00AD07AC06ED1DAE0470011C4E6005120ACA
:0409AF006180F12250
:100A0700EF1FAC0670011E4C6005120A8080F122B0
:10002E000203EFE86480F8E933E83360110460F00E
:10003E00ED33EC337009E8FCE9FDEAFEEBFF220438
:10004E0060DED3EB9FEA9EE99DE8C2E78CF0C2F733
:10005E0095F0400CE8CCF8E9CDF9EACEFAEBCFFBFF
:10006E001203BA85D0F05804700320D5B3E804709B
:10007E00075002B2D50203F992D5EC0460F7E4CC36
:10008E00C0E0C398F8603B94186008400DD0E0FBC8
:10009E000203D1E4FBFAC9FC8028E830E406E4C987
:1000AE00FBE4CAFCE830E305E4C9CACBFCE854071C
:1000BE006010F8C3E913F9EA13FAEB13FBEC13FC27
:1000CE00D8F130F52FC3E49CFCEF9BFFEE9AFEEDCA
:1000DE0099FDD0E0FBEF4E4D4C701222DB03020374
:1000EE00F6EC2CFCEF33FFEE33FEED33FDED30E797
:1000FE00EB0203D1EF2BFFEE3AFEED39FDD0E0FB24
:10010E0050130BBB00030203F9ED13FDEE13FEEFCC
:08011E0013FFEC13FC0203D1F6
:10012600EC4D6011E8497017ED33EC3304600DE4D3
:10013600FCFFFEFD22E933E8330470F80203EF12F8
:1001460003BA58046009E4CC2481500628500902F9
:1001560003F92840030203F6C0E0EB4A7044B98075
:1001660006D0E0FB0203E5EF4E701CBD8008EBFFF6
:10017600EAFEE9FD80EBE98DF0A4FEE5F002020F50
:10018600E9CDF9EAFEEBFFEF89F0A4FCE5F0CE89B4
:10019600F0A42EFFE435F0CD89F0A42DFEE435F071
:1001A6008067EF4E7005BD80D780C3EF8BF0A4AC9F
:1001B600F0EE8BF0A42CFCE435F0F8EF8AF0A42CDA
:1001C600E5F038FCE433CB8DF0A42CFCE5F03BF8ED
:1001D600EE8AF0A42CFCE5F038F8E433CF89F0A4DD
:1001E6002CFCE5F038CF3400CE89F0A42FFFE5F0E3
:1001F6003EFEE433C98DF0A42EFEE5F039CD8AF03B
:10020600A42FFFE5F03EFEE43DFD33D0E0FB5007B2
:100216000BBB000F0203F9EC2CFCEF33FFEE33FEB1
:06022600ED33FD0203D1DF
:10022C000203F9EC5D046005E8590470030203EF66
:10023C001203BA580460F6EC4860F2EC7004FDFE50
:10024C00FF22C860DB2481C85009C39860025006A5
:10025C000203F69850CAF582E9294B4A7005AB8225
:10026C000203E575F0007C1A7880C3EF9BEE9AEDE3
:10027C0099400DC3EF9BFFEE9AFEED99FDE842F01D
:10028C00DC23ACF0D0E0FFD0E0FED0E0FDAB822070
:10029C00E7101BEB60BAEC2CFCEF33FFEE33FEEDFA
:1002AC0033FD0203D1E803F830E705C0F075F00028
:1002BC00EF2FFFEE33FEED33FD40B830E7C280AADE
:1002CC0074F8CC6480CCC86480C8F58204604FC3D9
:1002DC00EB9FF5F0EA9E42F0E99D42F0E89C45F078
:1002EC00603C501DE5825FFFE582D313CB5BCBF402
:1002FC002B5582FB50280ABA002409B9002008802B
:10030C001DE5825BFBE582D313CF5FCFF4C3132FC4
:10031C005582FF50090EBE00050DBD00010CC3EB4C
:10032C009FF5F0EA9E42F0E99D42F0E89C45F060B2
:09033C0007CC4820E701B3EC22D4
:1003450075F020800E75F010800575F0087D007E33
:10035500007F003392D530D503120453EC3340109F
:10036500EF33FFEE33FEED33FDEC33FCD5F0ED223C
:0E037500E5F0247EA2D513CC92E7CDCEFF2278
:10038300EDD2E7CD33EC3392D524814006E4FFFE72
:10039300FDFC22FCE4CFCECDCC24E0501174FF80D1
:1003A300EDC3CC13CCCD13CDCE13CECF13CF04706E
:0703B300F030D5DE02045317
:1003BA00E9D2E7C933E833F892D5EDD2E7CD33EC89
:0703CA0033FC5002B2D52202
:1003D100EC30E7100FBF000C0EBE00080DBD00048D
:1003E1000BEB6014A2D5EB13FCED92E7FD2274FF39
:1003F100FCFDFEFF22E480F8A2D574FF13FC7D8092
:03040100E480EFA5
:0300000002054CAA
:0C054C00787FE4F6D8FD75811F0205934E
:10040400BB010689828A83E0225002E722BBFE02F6
:09041400E32289828A83E4932229
:10041D00C2D5EC30E709B2D5E4C39DFDE49CFCEEFA
:10042D0030E715B2D5E4C39FFFE49EFE120461C30D
:10043D00E49DFDE49CFC800312046130D507C3E408
:06044D009FFFE49EFE2269
:0E045300C3E49FFFE49EFEE49DFDE49CFC22BA
:1006A300AC1CAD1DAE1EAF1F7810EC4D4E4F700449
:1006B3007CA57DA5C3EC13FCED13FDEE13FEEF1338
:1006C300FF5010EC64CCFCED644CFDEE644EFEEF89
:1006D30064CEFFD8DF8C1C8D1D8E1E8F1FEE547FC2
:0D06E300FE228E1C8F1D74A5F51EF51F2232
:0C0A2300EE30E707C3E49FFFE49EFE22D4
:100558000205D8E493A3F8E493A34003F68001F2DC
:1005680008DFF48029E493A3F85407240CC8C333A4
:10057800C4540F4420C8834004F456800146F6DF73
:10058800E4800B0102040810204080900A45E47EB4
:10059800019360BCA3FF543F30E509541FFEE49368
:1005A800A360010ECF54C025E060A840B8E493A32F
:1005B800FAE493A3F8E493A3C8C582C8CAC583CA5A
:1005C800F0A3C8C582C8CAC583CADFE9DEE780BE12
:010A4E0000A7
:10046100BC000BBE0029EF8DF084FFADF022E4CC7F
:10047100F875F008EF2FFFEE33FEEC33FCEE9DEC48
:10048100984005FCEE9DFE0FD5F0E9E4CEFD22ED8E
:10049100F8F5F0EE8420D21CFEADF075F008EF2FD8
:1004A100FFED33FD4007985006D5F0F222C398FDC9
:0504B1000FD5F0EA2266
:00000001FF
